:1000000061C0000086C0000084C0000082C0000003
:1000100080C000007EC000007CC000007AC00000EC
:1000200078C0000076C0000074C0000072C00000FC
:1000300070C0000063C400006CC000006AC0000013
:1000400054C7000066C000000C94030A0C94350AE3
:1000500060C000005EC000005CC000005AC000002C
:1000600058C0000056C00000000000080002010057
:100070000003040700000000000000000102040863
:100080001020408001020408102001020408102002
:10009000040404040404040402020202020203032E
:1000A00003030303000000002300260029000000D2
:1000B0000000250028002B0000000000240027007D
:1000C0002A005A0A11241FBECFEFD8E0DEBFCDBFF1
:1000D00011E0A0E0B1E0ECEBF5E102C005900D927B
:1000E000A831B107D9F722E0A8E1B1E001C01D9223
:1000F000A233B207E1F710E0C2E6D0E004C02197D6
:10010000FE010E94D60AC136D107C9F79CD40C94CF
:10011000DC0A76CFCF92DF92EF92FF920F931F937C
:10012000E82FF92F05C0015011092109310961F1AA
:10013000908196239417B9F305C001501109210944
:10014000310911F1908196239413F7CFC12CD12C52
:10015000E12CF12C0AC08FEFC81AD80AE80AF80A75
:100160000C151D052E053F0579F080818623841727
:1001700091F36C2D7D2D8E2D9F2D1F910F91FF9052
:10018000EF90DF90CF90089560E070E080E090E025
:100190001F910F91FF90EF90DF90CF900895611124
:1001A00001C076C76130E9F362E0FBCF662311F04E
:1001B00061E0AAC760E0FDCFCF93C62F61E068D7AA
:1001C00060E08C2FCF9164C74F925F926F927F92C5
:1001D000AF92BF92CF92DF92EF92FF920F931F9355
:1001E000CF93DF935C01162FC42FD22F611103C070
:1001F00061E0842F4DD760E08C2F86D7C0D62B01CD
:100200003C01BDD6641975098609970966307105E8
:1002100081059105B0F361E08C2F76D7B0D62B0124
:100220003C01C02ED12CF12CE12CA9D66419750902
:1002300086099709C616D706E806F906B0F760E002
:100240008C2F62D7111103C060E08D2F21D720E4DD
:1002500032E44FE050E061E08D2F83D7F5016083F9
:10026000718382839383DF91CF911F910F91FF90D0
:10027000EF90DF90CF90BF90AF907F906F905F90A6
:100280004F900895FC0191E080911B01811190E055
:100290009183089580911B018F5F843618F48093B9
:1002A0001B01089510921B0108954F925F926F9267
:1002B0007F928F929F92AF92BF92CF92DF92EF92F6
:1002C000FF920F931F93CF93DF93CDB7DEB728979D
:1002D0000FB6F894DEBF0FBECDBF8091260281110C
:1002E000109226020AE025E044E061E0CE0101968A
:1002F0006BDF69817A818B819C81DED42EEA34EDBB
:1003000043EB59E38FD520E030E040E05FE38AD54E
:1003100020910001309101014091020150910301AF
:1003200081D52B013C018091DA0181111092DA0113
:100330000091FB011091FC01F80180819181A28163
:10034000B3810197A105B10511F181E090E0A0E032
:10035000B0E080839183A283B383158216821782D3
:1003600010861186128613861486158616861786C1
:10037000108A118A128A138A148A80E090E0A0E819
:10038000BFE3858B968BA78BB08F81E08483D801E8
:100390005596CD90DD90ED90FC90589715962D9147
:1003A0003D914D915C91189719968D919D910D906D
:1003B000BC91A02D8093C8019093C901A093CA015C
:1003C000B093CB01F80185859685A785B089809388
:1003D000CC019093CD01A093CE01B093CF01818940
:1003E0009289A389B4898093D0019093D101A0937D
:1003F000D201B093D301C301B2015DD35B01982E4A
:10040000892EC701B60127D461507109660F771F85
:10041000660F771FFB01E853FE4F80819181A28117
:10042000B3818D839E83AF83B8874082518262827D
:10043000738220E030E040E450E4C701B6019FD36E
:10044000882309F464C020E030E040E85FE3C7019E
:10045000B60131D3AB01BC01FA2DEB2D94018F2FE6
:100460009E2FA32FB22FF80185839683A783B08791
:100470008091C8019091C901A091CA01B091CB01AE
:1004800081879287A387B4878091CC019091CD0119
:10049000A091CE01B091CF0185879687A787B08BB9
:1004A0008091D0019091D101A091D201B091D3015E
:1004B000818B928BA38BB48B458B568B678B708F04
:1004C0008091270290912802A0912902B0912A02DE
:1004D0008F3FEFEF9E07AE07BE0759F00196A11DB3
:1004E000B11D8093270290932802A0932902B09314
:1004F0002A0280912B0281113FC081E080932B0260
:1005000083E080932C0282E080932F02DFC0209151
:10051000D0013091D1014091D2015091D30160912D
:10052000CC017091CD018091CE019091CF01C3D2C9
:100530009B01AC012093CC013093CD014093CE01BF
:100540005093CF016091C8017091C9018091CA0197
:100550009091CB01B0D26093C8017093C901809390
:10056000CA019093CB0140E050E060E87FE3F0E007
:10057000E0E030E020E073CF9501492D582D6D81EA
:100580007E818F81988597D220E030E040E85EE35D
:1005900049D46B017C0110912C02113001F1123011
:1005A00009F47DC020E030E0A901E9D2882309F4F4
:1005B000C5C020E030E040E251E4C701B601DFD21F
:1005C00087FD0AC020E030E048EC52E4C701B601E4
:1005D00025D418160CF0B2C010922F0212C020E0E1
:1005E00030E040E251E4CBD287FD09C020E030E0AA
:1005F00048EC52E4C701B60111D4181634F4109235
:100600002E0282E080932C028BC02DEC3CEC4CEC53
:100610005DE3C701B60106D420E030E048EC52E4C7
:10062000B2D24B015C016091270270912802809147
:10063000290290912A0240D36B017C0180912E0205
:100640008130B1F4A50194016DEC7CEC8CEC9DE360
:1006500031D220E030E040E251E4E4D3A70196013A
:100660008ED218160CF493C082E080932E022EC016
:1006700020E030E040E251E4C501B401D3D3A7014A
:1006800096017DD2181654F110932E021092270273
:10069000109228021092290210922A0278C020E0BB
:1006A00030E040E251E4BAD387FD1AC020E030E0E8
:1006B00048EC52E4C701B60162D218168CF01092D1
:1006C0002D0281E080932C0210932E0210922702BB
:1006D000109228021092290210922A0261E058C05A
:1006E00020E030E0A901C701B60149D2811103C061
:1006F00010922D0205CF60912702709128028091FF
:10070000290290912A02D8D220912D02213059F449
:1007100020E030E040E250E481D387FD38C082E041
:1007200080932D02D3CF20E030E040E250E476D336
:1007300087FDD4CF81E080932D02A8CF20E030E068
:1007400040E251E4C701B60169D387FD0FC020E044
:1007500030E048EC52E4C701B60111D2181634F06B
:1007600010922F0281E080932C027ECF809127028D
:1007700090912802A0912902B0912A0220912F0283
:100780002130F9F40597A105B10508F0BCCE60E071
:100790008DE00CDD28960FB6F894DEBF0FBECDBFFE
:1007A000DF91CF911F910F91FF90EF90DF90CF904D
:1007B000BF90AF909F908F907F906F905F904F9081
:1007C00008950597A105B10508F488CF81E08093CD
:1007D0002F025CCFCF92DF92EF92FF921F93CF93C5
:1007E000DF93C4EDD1E0C12CD12C7601C394C0922B
:1007F0002202D0922302E0922402F092250265E0C8
:1008000084E0DADC109226021882C982DA82EB8256
:10081000FC82C9A6DAA6EBA6FCA61DA61EA61FA6EC
:1008200018AA81E092E098A78FA311E01D831E8291
:1008300010921A02C0921B02D0921C02E0921D027A
:10084000F0921E0261E08DE0AADC10931F02DF919E
:10085000CF911F91FF90EF90DF90CF9008958091FE
:10086000D401811132C081E08093D4018091D501FF
:100870009091D601A091D701B091D8010197A1051F
:10088000B10519F58091D9018823F9F0E091FB01B8
:10089000F091FC0180819181A281B3810197A10532
:1008A000B10541F482E090E0A0E0B0E08083918364
:1008B000A283B3838FEF9FEFDC018093FD019093C0
:1008C000FE01A093FF01B093000280911A028111F2
:1008D00003C081E080931A02089540E855E260E089
:1008E00070E090E080E006D061E088E0D1D360E085
:1008F00088E00AC426E08BE291E025C51F920F92A2
:100900000FB60F9211242F933F934F935F936F93E2
:100910007F938F939F93AF93BF93EF93FF9386E063
:100920009FEF9093850080938400809120019091A7
:100930002101019719F461E088E0E6D332D0FF91FC
:10094000EF91BF91AF919F918F917F916F915F9147
:100950004F913F912F910F900FBE0F901F901895C0
:1009600086E09FEF9093850080938400AFE6B0E02F
:100970008C918E7F8C93E0E8F0E080818C7F808387
:10098000E1E8F0E08081877E8083808183608083DE
:1009900080818B7F80838C9181608C93089581E02E
:1009A0000895CF93DF9300D0CDB7DEB780911E01BD
:1009B00091E0980F90931E01882369F021E030E0C8
:1009C000309321012093200180931E010F900F90FE
:1009D000DF91CF910895CE01019654DC78945ADCD2
:1009E000F89480911E01815080931E018A81882392
:1009F00089F080911D0191E0980F90931D0188234B
:100A000049F021E030E030932101209320018093D0
:100A10001D01DCCF80911D018823C1F280911F014F
:100A20008111D4CF81E080931F0178943EDCF8944B
:100A300080911D01815080931D0180911F01815083
:100A400080931F01C3CFCF93DF9310923102109296
:100A50003002BAD242DFC0910401D091050119825F
:100A60001882B8DEF8947CDF81E028813981232B5D
:100A700009F080E08093300278947894809130027D
:100A8000811107C0ECDEF89490E080E0DF91CF9117
:100A9000089581E028813981232B09F480E0809337
:100AA00031029091310281E0911180E08093300217
:100AB00076DFE4CF5058BB27AA270ED075C166D188
:100AC00030F06BD120F031F49F3F11F41EF45BC184
:100AD0000EF4E095E7FB51C1E92F77D180F3BA1707
:100AE000620773078407950718F071F49EF58FC1AC
:100AF0000EF4E0950B2EBA2FA02D0B01B901900139
:100B00000C01CA01A0011124FF27591B99F0593F7C
:100B100050F4503E68F11A16F040A22F232F342FC4
:100B20004427585FF3CF469537952795A795F04012
:100B30005395C9F77EF41F16BA0B620B730B840B27
:100B4000BAF09150A1F0FF0FBB1F661F771F881FDF
:100B5000C2F70EC0BA0F621F731F841F48F4879537
:100B600077956795B795F7959E3F08F0B3CF939526
:100B7000880F08F09927EE0F979587950895D9D09B
:100B800008F481E008950CD00FC107D140F0FED0E9
:100B900030F021F45F3F19F0F0C0511139C1F3C0BA
:100BA00014D198F39923C9F35523B1F3951B550B31
:100BB000BB27AA2762177307840738F09F5F5F4F30
:100BC000220F331F441FAA1FA9F333D00E2E3AF071
:100BD000E0E830D091505040E695001CCAF729D08B
:100BE000FE2F27D0660F771F881FBB1F26173707DA
:100BF0004807AB07B0E809F0BB0B802DBF01FF270A
:100C000093585F4F2AF09E3F510568F0B6C000C16F
:100C10005F3FECF3983EDCF3869577956795B79543
:100C2000F7959F5FC9F7880F911D9695879597F95E
:100C30000895E1E0660F771F881FBB1F62177307D7
:100C40008407BA0720F0621B730B840BBA0BEE1FEC
:100C500088F7E095089504D06894B111D9C008953B
:100C6000BCD088F09F5790F0B92F9927B751A0F0CA
:100C7000D1F0660F771F881F991F1AF0BA95C9F730
:100C800012C0B13081F0C3D0B1E00895C0C0672F69
:100C9000782F8827B85F39F0B93FCCF386957795E0
:100CA0006795B395D9F73EF49095809570956195C9
:100CB0007F4F8F4F9F4F0895E89409C097FB3EF4F4
:100CC00090958095709561957F4F8F4F9F4F992399
:100CD000A9F0F92F96E9BB279395F6958795779517
:100CE0006795B795F111F8CFFAF4BB0F11F460FFD7
:100CF0001BC06F5F7F4F8F4F9F4F16C0882311F02F
:100D000096E911C0772321F09EE8872F762F05C042
:100D1000662371F096E8862F70E060E02AF09A95DD
:100D2000660F771F881FDAF7880F9695879597F9D2
:100D30000895990F0008550FAA0BE0E8FEEF16166C
:100D40001706E807F907C0F012161306E407F507BF
:100D500098F0621B730B840B950B39F40A2661F033
:100D6000232B242B252B21F408950A2609F4A140D6
:100D7000A6958FEF811D811D089597F99F6780E8E3
:100D800070E060E008959FEF80EC089500240A94DD
:100D90001616170618060906089500240A94121656
:100DA0001306140605060895092E0394000C11F489
:100DB000882352F0BB0F40F4BF2B11F460FF04C036
:100DC0006F5F7F4F8F4F9F4F089557FD9058440F8F
:100DD000551F59F05F3F71F04795880F97FB991F9A
:100DE00061F09F3F79F08795089512161306140657
:100DF000551FF2CF4695F1DF08C0161617061806E4
:100E0000991FF1CF86957105610508940895E894BE
:100E1000BB2766277727CB0197F908958ADF08F467
:100E20008FEF08950BD0C0CFB1DF28F0B6DF18F0F8
:100E3000952309F0A2CFA7CF1124EACFC6DFA0F3F4
:100E4000959FD1F3950F50E0551F629FF001729F5F
:100E5000BB27F00DB11D639FAA27F00DB11DAA1F7E
:100E6000649F6627B00DA11D661F829F2227B00DCB
:100E7000A11D621F739FB00DA11D621F839FA00D56
:100E8000611D221F749F3327A00D611D231F849FA6
:100E9000600D211D822F762F6A2F11249F575040FD
:100EA0008AF0E1F088234AF0EE0FFF1FBB1F661F98
:100EB000771F881F91505040A9F79E3F510570F051
:100EC0005CCFA6CF5F3FECF3983EDCF38695779539
:100ED0006795B795F795E7959F5FC1F7FE2B880F4C
:100EE000911D9695879597F908951F920F920FB6C9
:100EF0000F9211242F933F938F939F93AF93BF93A0
:100F00008091230190912401A0912501B0912601A7
:100F10003091220123E0230F2D3758F50196A11DB2
:100F2000B11D209322018093230190932401A0936B
:100F30002501B09326018091270190912801A0916D
:100F40002901B0912A010196A11DB11D80932701AD
:100F500090932801A0932901B0932A01BF91AF91EA
:100F60009F918F913F912F910F900FBE0F901F90E7
:100F7000189526E8230F0296A11DB11DD2CF3FB7C9
:100F8000F8948091270190912801A0912901B091B6
:100F90002A0126B5A89B05C02F3F19F00196A11D77
:100FA000B11D3FBFBA2FA92F982F8827BC01CD01B3
:100FB000620F711D811D911D42E0660F771F881F12
:100FC000991F4A95D1F70895789484B5826084BDBD
:100FD00084B5816084BD85B5826085BD85B581603D
:100FE00085BDEEE6F0E0808181608083E1E8F0E09D
:100FF0001082808182608083808181608083E0E8CC
:10100000F0E0808181608083E1EBF0E080818460AA
:101010008083E0EBF0E0808181608083EAE7F0E0AC
:101020008081846080838081826080838081816010
:1010300080838081806880831092C100089583300E
:1010400081F028F4813099F08230A9F0089587303A
:10105000A9F08830C9F08430B1F4809180008F7D90
:1010600003C0809180008F7780938000089584B5BD
:101070008F7784BD089584B58F7DFBCF8091B000BC
:101080008F778093B00008958091B0008F7DF9CF65
:10109000CF93DF9390E0FC01E458FF4F24918057F9
:1010A0009F4FFC0184918823C9F090E0880F991F1D
:1010B000FC01E854FF4FA591B491FC01E255FF4FAC
:1010C000C591D49161110DC09FB7F8948C91209572
:1010D00082238C938881282328839FBFDF91CF911F
:1010E0000895623051F49FB7F8943C91822F809517
:1010F00083238C93E8812E2BEFCF8FB7F894EC915C
:101100002E2B2C938FBFEACF1F93CF93DF93282FE3
:1011100030E0F901E859FF4F8491F901E458FF4F9D
:10112000D491F901E057FF4FC491CC23A1F0162FC1
:10113000811185DFEC2FF0E0EE0FFF1FE255FF4F2E
:10114000A591B4918FB7F894EC91111108C0D09586
:10115000DE23DC938FBFDF91CF911F910895DE2BAB
:10116000F8CF0F931F9390E0FC01E458FF4F749168
:10117000FC01E057FF4FE4916111672FF0E0EE0FA3
:10118000FF1FEC55FF4F8591949189019A013F70A3
:10119000462F672F0E948A00611571058105910510
:1011A00029F06F5F7F4F8F4F9F4F9F701F910F915F
:1011B0000895FC01918D228D892F90E0805C9F4FD6
:1011C000821B91098F7399270895FC01918D828D5F
:1011D000981731F0828DE80FF11D858D90E008950C
:1011E0008FEF9FEF0895FC01918D828D981761F02C
:1011F000A28DAE0FBF2FB11D5D968C91928D9F5F1A
:101200009F73928F90E008958FEF9FEF0895FC01F8
:10121000538D448D252F30E0842F90E0821B930B5B
:10122000541710F0CF96089501970895FC01A48DEE
:10123000A80FB92FB11DA35ABF4F2C91848D90E0F8
:1012400001968F739927848FA689B7892C93A089DB
:10125000B1898C91837080648C93938D848D981365
:1012600006C00288F389E02D80818F7D80830895F8
:10127000CF93DF93EC01888D8823B1F0AA89BB89D5
:10128000E889F9898C9185FD03C0808186FD0CC0B9
:101290000FB607FCF7CF8C9185FFF2CF808185FFD9
:1012A000EDCFCE01C3DFEACFDF91CF910895EF926A
:1012B000FF920F931F93CF93DF93EC0181E0888F10
:1012C0009B8D8C8D98131AC0E889F989808185FFE0
:1012D00015C09FB7F894EE89FF896083E889F98982
:1012E00080818370806480839FBF81E090E0DF9184
:1012F000CF911F910F91FF90EF900895F62E0B8DD7
:1013000010E00F5F1F4F0F731127E02E8C8D8E1191
:101310000BC00FB607FCFACFE889F989808185FFF9
:10132000F5CFCE0183DFF2CFEB8DEC0FFD2FF11D5A
:10133000E35AFF4FF0829FB7F8940B8FEA89FB893D
:1013400080818062D0CFCF92DF92EF92FF921F9385
:10135000CF93DF93EC016A017B01122FE889F989B1
:1013600082E08083C11481EED806E104F10499F093
:1013700060E079E08DE390E0A7019601F5D021507F
:1013800031094109510956954795379527952115FA
:1013900080E1380790F0E889F989108260E874E804
:1013A0008EE190E0A7019601DFD02150310941097B
:1013B00051095695479537952795EC85FD853083DE
:1013C000EE85FF852083188EEC89FD891083EA89DC
:1013D000FB89808180618083EA89FB8980818860C4
:1013E0008083EA89FB89808180688083EA89FB8920
:1013F00080818F7D8083DF91CF911F91FF90EF904F
:10140000DF90CF9008951F920F920FB60F92112484
:101410002F938F939F93EF93FF93E0913B01F09174
:101420003C018081E0914101F091420182FD1BC0AD
:101430009081809144018F5F8F73209145018217C5
:1014400041F0E0914401F0E0E55DFE4F958F80931F
:101450004401FF91EF919F918F912F910F900FBEBB
:101460000F901F9018958081F4CF1F920F920FB6A6
:101470000F9211242F933F934F935F936F937F931A
:101480008F939F93AF93BF93EF93FF938BE291E082
:10149000CDDEFF91EF91BF91AF919F918F917F91A1
:1014A0006F915F914F913F912F910F900FBE0F90D1
:1014B0001F901895EBE2F1E01382128288EE93E020
:1014C000A0E0B0E084839583A683B7838AE091E0AF
:1014D0009183808385EC90E09587848784EC90E00D
:1014E0009787868780EC90E0918B808B81EC90E0F1
:1014F000938B828B82EC90E0958B848B86EC90E0D2
:10150000978B868B118E128E138E148E0895AF9248
:10151000BF92CF92DF92EF92FF920F931F93CF93E0
:10152000DF936C017B018B01040F151FEB015E0142
:10153000AE18BF08C017D10759F06991D601ED91D7
:10154000FC910190F081E02DC6010995892B79F776
:10155000C501DF91CF911F910F91FF90EF90DF9028
:10156000CF90BF90AF900895A1E21A2EAA1BBB1B8B
:10157000FD010DC0AA1FBB1FEE1FFF1FA217B3075F
:10158000E407F50720F0A21BB30BE40BF50B661F75
:10159000771F881F991F1A9469F760957095809539
:1015A00090959B01AC01BD01CF010895EE0FFF1F87
:0C15B0000590F491E02D0994F894FFCF11
:1015BC000000C8421801000000005709870A0709FB
:0815CC003809D908F308E5080D
:00000001FF
